:1001560010083F065B4F666D7D077F6F777C585EA4
:020166007971AD
:040136007FB87E8888
:10013A007DFAD3EF9400EE94004010EDD394004082
:0B014A00031D80F7EF1F70EA1E80E726
:010155002287
:030003000200A256
:1000A200C0E0C0D075D000C000C004C005C006C00A
:0100B2000746
:1000B300A289B392B0E4FC74082CF8E6F5A012010F
:0800C300360CBC0AF2759040F6
:0F00CB00D007D006D005D004D000D0D0D0E0327E
:030013000200DA0E
:1000DA00C0E0C0D075D000C000C004C005C006C0D2
:0100EA00070E
:1000EB00E4FCA289B392B074082CF8E6F5901201E7
:0800FB00360CBC0AED759040C3
:0F010300D007D006D005D004D000D0D0D0E03245
:10011200758805C2B8D2BAD2B075A0407590407544
:10012200A885E4FC74082CF8E6F5801201360CBCB4
:040132000AF280EE5F
:03000000020016E5
:0C001600787FE4F6D8FD75811702005DCC
:10002200020112E493A3F8E493A34003F68001F2E1
:1000320008DFF48029E493A3F85407240CC8C333DF
:10004200C4540F4420C8834004F456800146F6DFAE
:10005200E4800B0102040810204080900156E47EE7
:10006200019360BCA3FF543F30E509541FFEE493A3
:10007200A360010ECF54C025E060A840B8E493A36A
:10008200FAE493A3F8E493A3C8C582C8CAC583CA95
:10009200F0A3C8C582C8CAC583CADFE9DEE780BE4D
:010168000096
:00000001FF
