:1000C8000F08065B4F666D7D077F6F777C585E79FA
:0400D800710117009B
:030003000200DD1B
:0300DD00B28432B8
:030013000200A246
:1000A200C0E0C0F0C0D075D000C00074082517F8B9
:1000B200E6F5A0E5170475F00F8485F017D000D09F
:0600C200D0D0F0D0E032C6
:0D000600758805D28475A03F75A88580FE21
:03000000020016E5
:0C001600787FE4F6D8FD75811702005DCC
:10002200020006E493A3F8E493A34003F68001F2EE
:1000320008DFF48029E493A3F85407240CC8C333DF
:10004200C4540F4420C8834004F456800146F6DFAE
:10005200E4800B01020408102040809000C8E47E76
:10006200019360BCA3FF543F30E509541FFEE493A3
:10007200A360010ECF54C025E060A840B8E493A36A
:10008200FAE493A3F8E493A3C8C582C8CAC583CA95
:10009200F0A3C8C582C8CAC583CADFE9DEE780BE4D
:0100DC000023
:00000001FF
