:10010A003F065B4F666D7D077F6F01020408102072
:10011A00408001041040020820800103070F1F3F9E
:02012A007FFF55
:10000300AF08EF3395E0FE74142FF58274013EF5CB
:0A00130083E493F4F5807FF47E018E
:10001D00D3EF9400EE9400402BE4FD0DBD7DFC204C
:10002D00B71BE4F509F50A050AE50A70020509B4DE
:10003D00E2F5E509B404F020B7037F0122EF1F704C
:07004D00CF1E80CC7F0022D2
:1000B600E4F508120003EF70210508C3E508648023
:1000C600948840EF750807C3E5086480948040E093
:0B00D600120003EF7004150880ED22FB
:10005400E4F508AF08EF3395E0FE741C2FF58274C5
:10006400013EF583E493F4F5807FE87E0312001DDE
:10007400EF700D0508C3E5086480948840D580D0EE
:010084002259
:10008500E4F508AF08EF3395E0FE74242FF582748C
:10009500013EF583E493F4F5807FE87E0312001DAD
:1000A500EF700D0508C3E5086480948840D580D0BD
:0100B5002228
:10012C00E4F5807FE87E0312001DEF700D7580FFF3
:0B013C007FE87E0312001DEF60E6224A
:1000E100E4FCEC14600F146011146013240370120B
:1000F1001200B6800D120054800812008580031290
:09010100012CEC045403FC80D92C
:03000000020147B3
:0C014700787FE4F6D8FD75810B0200E122
:00000001FF
