:10013F000A093F065B4F666D7D077F6F010800015F
:02014F0013009B
:10012000D3EF9400EE94004015E4FCFD0DBD0001FA
:0E0130000CED647D4C70F5EF1F70E51E80E253
:01013E00229E
:10009A007F0A7E0012012075B001E50875F00A1288
:1000AA0000FEAFF074092FF8E6F5A07F0A7E001271
:1000BA00012075B002E50875F00A1200FE2409F85D
:0400CA00E6F5A02295
:03000B000201529D
:09015200758C3C758AB00513326E
:1000CE00758901758C3C758AB0D2AFD2A9D28C12CB
:1000DE00009AC3E513648094944010E4F513E50888
:1000EE0004FF75F03C1200FE85F00812009A80E2C3
:0300000002000EED
:0C000E00787FE4F6D8FD758113020055E0
:1000FE00C2D530F707B2D563F0FF05F030E70CB28A
:10010E00D5F4048463F0FF05F080018430D502F449
:02011E000422B9
:10001A000200CEE493A3F8E493A34003F68001F22E
:10002A0008DFF48029E493A3F85407240CC8C333E7
:10003A00C4540F4420C8834004F456800146F6DFB6
:10004A00E4800B010204081020408090013FE47E06
:10005A00019360BCA3FF543F30E509541FFEE493AB
:10006A00A360010ECF54C025E060A840B8E493A372
:10007A00FAE493A3F8E493A3C8C582C8CAC583CA9D
:10008A00F0A3C8C582C8CAC583CADFE9DEE780BE55
:0101510000AD
:00000001FF
