:1000F4000A0A3F065B4F666D7D077F6F01080001AA
:020104000900F0
:10000300D3EF9400EE94004015E4FCFD0DBD000118
:0E0013000CED647D4C70F5EF1F70E51E80E271
:0100210022BC
:030023000200B226
:1000B200C0E0C0D075D000C00030990AC299740A5D
:1000C2002509F8E6F5A0309808C2988599098509AE
:0800D20099D000D0D0D0E0323B
:1000DA00758920758BF4758DF4E4F587759850D27F
:0A00EA008ED2AFD2AC85089980FEDB
:03000000020026D5
:0C002600787FE4F6D8FD75811302006DB0
:100032000200DAE493A3F8E493A34003F68001F20A
:1000420008DFF48029E493A3F85407240CC8C333CF
:10005200C4540F4420C8834004F456800146F6DF9E
:10006200E4800B01020408102040809000F4E47E3A
:10007200019360BCA3FF543F30E509541FFEE49393
:10008200A360010ECF54C025E060A840B8E493A35A
:10009200FAE493A3F8E493A3C8C582C8CAC583CA85
:1000A200F0A3C8C582C8CAC583CADFE9DEE780BE3D
:0101060000F8
:00000001FF
