:1000DA000A0A3F065B4F666D7D077F6F01080001C4
:0200EA0009000B
:030023000200B226
:1000B200C0E0C0D075D000C00030990AC299740A5D
:1000C2002509F8E6F5A0309808C2988599098509AE
:0800D20099D000D0D0D0E0323B
:10000300758920758BF4758DF4E4F587759850D256
:070013008ED2AFD2AC80FEDB
:03000000020026D5
:0C002600787FE4F6D8FD75811302006DB0
:10003200020003E493A3F8E493A34003F68001F2E1
:1000420008DFF48029E493A3F85407240CC8C333CF
:10005200C4540F4420C8834004F456800146F6DF9E
:10006200E4800B01020408102040809000DAE47E54
:10007200019360BCA3FF543F30E509541FFEE49393
:10008200A360010ECF54C025E060A840B8E493A35A
:10009200FAE493A3F8E493A3C8C582C8CAC583CA85
:1000A200F0A3C8C582C8CAC583CADFE9DEE780BE3D
:0100EC000013
:00000001FF
