:10000E000A0A3F065B4F666D7D077F6F0108000190
:02001E000900D7
:10015900D3EF9400EE94004015E4FCFD0DBD0001C1
:0E0169000CED647D4C70F5EF1F70E51E80E21A
:010177002265
:03000B0002017877
:10017800C0E0C0D00509C3E5096480948A400875C9
:0C0188000900C28C850899D0D0D0E0326C
:030023000200B226
:1000B200C0E0C0F0C083C082C0D075D000C000C014
:1000C20001C002C003C004C005C006C007309902C7
:1000D200C299309823C298E599B50819740A25087F
:1000E200F8E6F5A0E50804FF75F00A12013785F07D
:1000F20008D28C8003850899D007D006D005D00499
:10010200D003D002D001D000D0D0D082D083D0F0A2
:03011200D0E03208
:10011500758921758BF4758DF4758C3C758AB0E401
:10012500F587759850D28ED2AFD2ACD2A9850899F1
:0201350080FE4A
:03000000020026D5
:0C002600787FE4F6D8FD75811302006DB0
:10013700C2D530F707B2D563F0FF05F030E70CB250
:10014700D5F4048463F0FF05F080018430D502F410
:02015700042280
:10003200020115E493A3F8E493A34003F68001F2CE
:1000420008DFF48029E493A3F85407240CC8C333CF
:10005200C4540F4420C8834004F456800146F6DF9E
:10006200E4800B010204081020408090000EE47E20
:10007200019360BCA3FF543F30E509541FFEE49393
:10008200A360010ECF54C025E060A840B8E493A35A
:10009200FAE493A3F8E493A3C8C582C8CAC583CA85
:1000A200F0A3C8C582C8CAC583CADFE9DEE780BE3D
:0100200000DF
:00000001FF
